:100000000C9478050C9495050C9495050C94950525
:100010000C9495050C9495050C9495050C949505F8
:100020000C9495050C9495050C9495050C949505E8
:100030000C9495050C9495050C9495050C949505D8
:100040000C9495050C9495050C9495050C949505C8
:100050000C9495050C9495050C9495050C949505B8
:100060000C9495050C9495055F00040304040104A9
:10007000050A0D00FE09FE09000185034804BD20A4
:100080000500910221079151C245002208239F4299
:10009000844400231899514B4C504CC881484C5013
:1000A0004C504CC881484C504C0800241299515374
:1000B000D4454C8C4CD4558C4C8AAB2000251599DA
:1000C000518B5044482E8224E252084584E4224851
:1000D0000400261499518B58485448985848509A0F
:1000E000A888543115012706215F820028099391C1
:1000F0004A4492DC24290A9391424C925C24012ABE
:100100000A55DD4A50484536012B0B55D54A504813
:10011000495008002C062271C6002D0615D942014F
:100120002E06227102012F099951635CFE100030E6
:100130000F99514B4D54449CEE22A2624A00310962
:1001400095D14AC8503E29320E9951C7455C608A04
:100150008BC0840702330F9951C7455C609ACA402F
:10016000B9880B00340B995143609CBA83C11C358C
:100170000F9951C3C160C283C840B9880B003610C3
:100180009951C7459C60E041449CBA880B00370BED
:100190009951C381605C0E3302380F9951C7459C59
:1001A000BA888B387511170039109951C7459CBA18
:1001B0008883C040B9880B003A0762710211013B85
:1001C000086271029144003C0874B14E4846193DE2
:1001D0000744B50221013E0974B1425026D9003FBF
:1001E0000F9951C7459C5C6010553C6C100040163F
:1001F00099514B4D5444C88854840885444C848894
:1002000045A4050041149951535C445844544C5042
:100210004D544854449C5C0042139951C34958447E
:100220009C58C44958449C58C40900431099514BE8
:100230004D54449C60761151312500440D9951C3B1
:100240004958449C9E459C00450E9951C3C160C2CB
:100250008388C0840702460D9951C3C160C2838858
:10026000C00C01470F99518B4998601A3BB988B06F
:100270009003480B9951439C760774DA054907911E
:1002800051C281004A0E9951DB6086727211513160
:1002900025004B149951439C58445448504C519A52
:1002A000A890B088B8004C09995143607E78204DE1
:1002B00012995143DCD4444C844844884C8C9C763D
:1002C000014E14995143DC98449448904C8C5088CA
:1002D0005484D85C004F0F99514B4D54449CEE22EE
:1002E000A2624A00500E9951C341449CBA0389C08E
:1002F0000C015119AA6F4B5154485C445C444C8A20
:10030000A09088A88890A8A08AD00052109951C3C4
:1003100041449CBA0389B088387501530F9951C77D
:10032000459C60E465A05CC40500540A9951C381F2
:1003300050607E04550C9951439CBE8B888A2901DC
:1003400056159951439C5C445448544CA298A88833
:10035000B088B8200057179951434C8C4C8C4C8C6A
:100360004C8C4C8A9C446412914D12005813995144
:10037000435C44544CAA88B8145131A922E2025972
:100380000F9951435C44544CAA88B8C01C015A0AC6
:100390009951C3815C7E77205B089271C244BE1084
:1003A0005C0899514364FE005D0892718244BE1856
:1003B0005E0935DD4A4C449A005F071951C381003C
:1003C000600734BD825002610D7951C765C4819CBC
:1003D000BA880B00620E99514360E041449CEE0ED6
:1003E0002400630C7951C7459C6076111700640C9A
:1003F0009951638A0339DD451C04650E7951C7455F
:100400009CDC814460E40500660C9951CB45DC41DD
:100410004860DE01670E994DC7819CEE220E020FE7
:100420002400680C99514360E041449CDE05690753
:10043000915142C4016A0CB94D633C4860BE8B388F
:10044000016B0F995143603AB18893B088387501B8
:100450006C08927142447E126D13795103C5444C6D
:100460008C4C8C4C8C4C8C4C8C4C026E0A7951C34D
:1004700041449CDE056F0B7951C7459CEE222E004E
:10048000700E994DC341449CEE0E24020301710C81
:10049000994DC7819CEE220E0213720B7951C34114
:1004A000449CC20C01730D7951C7459CE4A55CC402
:1004B0000500740B99514B609855602E0D750A79A3
:1004C00051439CDE451C04760F7951439CBA88A8A1
:1004D00098541171410077137951434C8C4C8C4CDA
:1004E0008A9C4464932826040078107951435C4424
:1004F000544CAAA99854117101790D994D439CDE71
:10050000451C041E48007A0B7951C381585CCE0EFD
:10051000047B0C93914A44488A989034017C06717C
:1005200053C2017D0D9391424C489A88901421004A
:100530007E0A371787504822090000000004FFFF99
:1005400000005F00030204050105050E15FFFB0E08
:10055000FB0FFF01BA03B60591200500420A2107EF
:10056000E14289872C2207336E8AC41223149CCA65
:10057000CE72980D072D8CC338CC868316C66108C1
:100580002414D746BC744B9A22294CD2350923A98E
:10059000D2B666002518CAC21DAD548B8A520EE52C
:1005A000508EE4500E4562548B6A9902261BE94234
:1005B000AD212CC5498EE4500E4D4A9AC4499CC4C5
:1005C000491C85DA902400270732EE094501280BE3
:1005D00004BF2A25CAFA1F4301290B04BF0AB1D65A
:1005E000FF9448002A0B556AAB3052A42C49002BCB
:1005F0000B5756BC381B862CCE002C0732BE094543
:10060000012D0616DE8B032E0622C289212F0DF541
:1006100042CBB6B016D6C25A5804300FE8C2AC214D
:100620000B93D87F4EC26C8800310BE742BC70EE52
:100630007F1B8600320FE8C2AC210B93382FF77B6B
:100640003E0C023315E8C2AC210B93382F873B9246
:1006500023792E27613644003411E8C2DC584DC29C
:10066000282B85D130A8799F00350EE7428C83DC9A
:1006700079D0CBADC920013614E8C2AC210B935818
:100680006F192231899D93301B2200370FE7428C6E
:10069000439CC6D5B81A57E322003815E8C2AC21EE
:1006A0000B93D89C84D9908549EC9C84D91001394E
:1006B00014E8C2AC210B93D83909A521C9EB7212F9
:1006C0006643043A0982CA89214786003B0992C6DB
:1006D0008921472C003C08954ACBAC6B073D073677
:1006E000D68BF3303E09954A8BB45B47003F0EE74B
:1006F00042ACAD92AA71DA5C67CE004018A942AD57
:10070000414B936852136948942C51B2441AA41C6B
:100710001A86004117E942CD1CC993388993340BDE
:10072000B370D0D2288DD224B7074212E8C28C53BE
:100730009AC4AEC930A549EC351926004310E8C269
:10074000AC210B9358EFCF49980D1100440DE8C22E
:100750008C539AC4FED7649800450DE8C28CF7EE1E
:10076000C394F73E0C02460BE8C28CF7EEC394F735
:100770001D4712E8C2AC210B93586F1B64CF4998F8
:100780000D1100480BE8C28CD8E7E110FB39490B8A
:10079000E5428B410AFB9F06014A0CE742ECFE59F9
:1007A00055932C9B004B17E8C28C3409A3AC14263C
:1007B000A912661DA3304A933489E5004C0AE8C2A9
:1007C0008CBCFFFB30084D21EB42AE344CC3344CA3
:1007D000B3244BA2244BA2244BA24AD412255992F3
:1007E00089A1188AA10E054E14E7428C541D472595
:1007F00053322992222DD112F1AA064F0FE8C2AC32
:10080000210B93D87F4EC26C8800500EE8C28C53E7
:100810009AC4AEC930E57D07511228B3AC210B93C1
:10082000D87F4EC26C88EB39B2005214E8C28C53A8
:100830009AC4AEC93065C5288CD2244D623953178D
:10084000E8C2AC210B9358CF911C19722447F25C7B
:100850004EC26C8800540AE7428C4316F77F03555A
:100860000CE8C28CD8FF3909B321025617E9428D32
:10087000DC9EA4511AA559310BB334899338C9733E
:1008800024045720ED428FACA6D5B4962CC9A22CD7
:10089000C9A22CC93A66C5AC9A3427CD497B9623A8
:1008A00059085816E7428C544DB228AB84491AA710
:1008B000499864A52C49D5005910E7428C544DB293
:1008C00028AB84491AF71B005A12E7428C439CC696
:1008D000699CC6699CC6693C0C015B09033F8A217F
:1008E000EAFF695C0DF5428BB01A56C36A580D0BCE
:1008F0005D09033F8AA9FFA7215E08356EAB2CA9CD
:10090000055F071AC28D87006007336E8AAC0061ED
:1009100016B942AD212CC539920D49142A711227FE
:1009200071146A4314621108C38CBCA729C91255FB
:10093000F6794C922102630FB8C2AC210B9358EFA9
:100940003909B32102641008C3FC9EA6244BD4D9F4
:10095000E7249486246511B8C2AC210B93581E0E6F
:10096000797312664304660E08C3CC218BF3EA3018
:100970006479FF0A671408AFAC2129CE7E4E426924
:1009800048F25C4EC26C8800680D08C38CBC97218D
:100990001293D83F0769080143897038086A0F58D5
:1009A0002DFC9CC7BCFF5D4EC26C88006B150743D5
:1009B0008CB8C7248B6A49A864A52C0A933049D502
:1009C000006C0903438AA8FF6F026D18BB428E4476
:1009D00093A4244AC2500CC5500CC5500CC5500CF1
:1009E000C5026E0CB8C28C6488C424F6CF016F0FA8
:1009F000B8C2AC210B93D8CF49980D1100701108E3
:100A0000AF8C6488C424F6F3982443947707710F5D
:100A100008AFAC2129CE7E4E426948F21E720CB856
:100A2000C28C6488C424D6FB1D7315B8C2AC210BDC
:100A30009358477264C8911C9193301B2200740D27
:100A40000743ACB8E33044717F1F027516B9428D7D
:100A5000388993388993388993388993380AB5212E
:100A60000A7613B9428DDC9EA4519A15B33489934A
:100A70003C474200771ABD428FACA6D5B4962CC92C
:100A8000A22CC93A66D5A43969CF72240B01781318
:100A9000B7428C34C9A2AC122669254CB25296A436
:100AA00001791208AF8CD83F27A13424792E276111
:100AB0003644007A0CB7428C435CED733C0C017BEE
:100AC0000D06BF4B2D4C1BCBD5CEB1007C06F142A1
:100AD000891F7D0D06BF0BB9DA5CAC76CC44007E75
:100AE00009355A9B4849A40400000004FFFF000098
:100AF00011241FBECFEFD8E0DEBFCDBF12E0A0E0D3
:100B0000B1E0E2E0FEE202C005900D92A235B1072D
:100B1000D9F727E0A2E5B2E001C01D92AF32B207DB
:100B2000E1F70E9478120C94FF160C9400000F93CA
:100B30001F93DC01ED91FC911197208992960D9104
:100B40001C919397629FB0011124660F771F660F67
:100B5000771F660F771F060F171F60E00E946B0E4E
:100B60001F910F910895EF92FF920F931F93CF93D0
:100B7000DF938C01DC019496FC9094979596DC9120
:100B80009597ED91FC91E188C0E04D2F6C2FC80145
:100B90000E949705CF5FDF5FCF1510F4DE15A8F335
:100BA000DF91CF911F910F91FF90EF900895FC017D
:100BB000A081B18150969C9144A1949FA0011124E1
:100BC000440F551F440F551F440F551F60E070E040
:100BD00082A193A10E940E140895CF93DF93EC019C
:100BE0000E94B305CE010E94AF0EDF91CF91089510
:100BF00028E0FC01208382E592E00895CF92DF9205
:100C0000EF92FF920F931F93CF93DF931F92CDB775
:100C1000DEB77C016B0189019A0142EB5DE063E480
:100C20007FE00E94880FCE0101960E94F8058601A0
:100C30002BE63BE04981BC01C7010E949F0C0F904D
:100C4000DF91CF911F910F91FF90EF90DF90CF90A8
:100C50000895860F911DFC0184910895FC01E60F13
:100C6000F11D849190E03196982F8827E4918E0FA2
:100C7000911D089580E090E0089580599F4FFC01F8
:100C80008081082E000C990B019608950F931F93F5
:100C9000CF93DF93EC018B0160E0C8010E9429062D
:100CA000888361E0C8010E942906898362E0C80147
:100CB0000E9429068A8363E0C8010E9429068B836B
:100CC00064E0C8010E9429068C8365E0C8010E9487
:100CD00029068D8366E0C8010E9429068E8367E09D
:100CE000C8010E9429068F8368E0C8010E94290676
:100CF000888769E0C8010E94290689876AE0C801DF
:100D00000E9429068A876BE0C8010E9429068B870A
:100D10006CE0C8010E9429068C876DE0C8010E9422
:100D200029068D876EE0C8010E9429068E876FE034
:100D3000C8010E9429068F8760E1C8010E94290628
:100D4000888B61E1C8010E942E069A8B898B63E132
:100D5000C8010E942E069C8B8B8B65E1C8010E9406
:100D60002E069E8B8D8BDF91CF911F910F91089551
:100D7000DC011A964C911A97ED91FC9111972491F0
:100D800030E0042E02C0359527950A94E2F7822FB1
:100D9000942F960F983080F088E0841B319611963E
:100DA000FC93EE93E491F0E002C0EE0FFF1F8A95F2
:100DB000E2F78E2F822B985021E030E002C0220F04
:100DC000331F6A95E2F721501A969C938223089567
:100DD0000F931F93CF93DF93EC018C01085B1F4FA0
:100DE000F80171836083128673966081C8010E9446
:100DF000B806F801808774966081C8010E94B80621
:100E0000F8018187BC968081F801848791E0811187
:100E100090E0C85BDF4F9D87DF91CF911F910F91CD
:100E20000895CF93C62F0E94B806C15021E030E04C
:100E300002C0220F331FCA95E2F7821BCF9108959B
:100E4000213049F018F0223059F00FC0840F911D65
:100E500047FD9A950895860F911D67FD9A9508950F
:100E6000841B910947FD93950895861B910967FDA1
:100E700093950895213049F018F0223059F00FC0B1
:100E8000860F911D67FD9A950895841B910947FD72
:100E900093950895861B910967FD93950895840F96
:100EA000911D47FD9A9508956F927F928F929F9220
:100EB000AF92BF92CF92DF92EF92FF920F931F9368
:100EC000CF93DF937C01162F742EFC01E85BFF4F5C
:100ED0009680D781F701E85BFF4FC085C9191C17C1
:100EE00010F06C2E01C0612EF701E85BFF4FC4804B
:100EF000D58006858D2E202F4D2F692D82819381DF
:100F00000E943A075C01202F4D2F692DC6010E94D7
:100F10002007772071F0F701E85BFF4F2485BC962E
:100F20002083262D30E0AC01B501C7010E94920A52
:100F300010C0F701E85BFF4F238521110AC025850A
:100F4000BC962083262D30E0AC01B501C7010E947C
:100F5000920A1C1720F01C1BDF5F912CBBCF612F66
:100F6000690DF701E85BFF4F66838782DF91CF91C0
:100F70001F910F91FF90EF90DF90CF90BF90AF90B7
:100F80009F908F907F906F9008956F927F928F9235
:100F90009F92AF92BF92CF92DF92EF92FF920F9308
:100FA0001F93CF93DF93EC017C0188E4E80EF11CE2
:100FB000CE010E94E806FE01EF5AFF4FC0803C962A
:100FC0006081C7010E941107782EFE01E25AFF4F8F
:100FD0006081C7010E941107182FFE01E15AFF4FDF
:100FE0006081C7010E941107D82EF7016084161492
:100FF0000CF09BC006851C0D1195202F412F672DED
:10100000828193810E943A075C01F7019383828376
:10101000202F412F672D848195810E942007F701A1
:1010200095838483013089F028F0023001F1033088
:10103000A1F143C09501260D311D67FC3A958C0145
:101040000C0D111DC7FC1A953AC0A5014C19510988
:10105000C7FC539595012F5F3F4F8C01060D111D65
:1010600067FC1A95BA016F5F7F4F5B0128C0A5012D
:101070004619510967FC539595012F5F3F4FBC01FD
:101080006C197109C7FC73958C010F5F1F4FCB0161
:101090000196FA0131965F0112C095012C0D311DA8
:1010A000C7FC3A95AC014619510967FC53958C0170
:1010B0000F5F1F4FCA01019602C08C019501AC0160
:1010C000B501CE010E94460B882379F1FE01E85B51
:1010D000FF4F16821782FE01E75AFF4F6081C7015A
:1010E0000E94B806082FFE01E65AFF4F6081C70133
:1010F0000E94B806182F40E0602FCE010E945407CE
:1011000041E0612FCE010E94540761E0C7010E94B7
:10111000B8068111F0CFFE01E85BFF4F87818C1587
:10112000D4F28485CC58DF4F88838D2DDF91CF9109
:101130001F910F91FF90EF90DF90CF90BF90AF90F5
:101140009F908F907F906F900895EF92FF920F93F2
:101150001F93CF93DF93FC01EC5BFF4FC081D181E4
:1011600067966F3F710509F038F56136710530F00B
:10117000B69680819181C80FD91F0AC0613471056C
:1011800038F0FC01E859FF4F80819181C80FD91FC9
:10119000CE010196FC012491222309F43CC0FE01FA
:1011A000249130E06217730711F4019639C0FC01F5
:1011B0008491C80FD11DECCF8B01FC01E459FF4F86
:1011C00080819181C80FD91F7E0160E0C7010E9414
:1011D0002E06C80FD91F62E0C7010E942E06F4E058
:1011E000EF0EF11C8017910780F3FE01849190E0CF
:1011F000982F88273196E4918E2B009779F0081765
:10120000190719F4CE0103960BC0FE013296E49142
:10121000CE0FD11DEACF80E090E002C080E090E0E8
:10122000DF91CF911F910F91FF90EF900895CF9391
:10123000DF93EC01FC01E65BFF4F71836083329624
:1012400051834083B9010E94A508009741F0BC0179
:10125000CE010E94C507082E000C990B02C080E049
:1012600090E0DF91CF910895CF92DF92EF92FF92BD
:101270000F931F93CF93DF93EC018B017A016901E8
:10128000FC01EA5AFF4F8081813089F028F08230DA
:10129000C9F0833011F12BC0FE01EA5BFF4F0190D2
:1012A000F081E02DCE010995E80EF91E20C0FE0167
:1012B000EA5BFF4F0190F081E02DCE010995081BFC
:1012C000190B15C0FE01EA5BFF4F0190F081E02D84
:1012D000CE010995E81AF90A0AC0FE01EA5BFF4F40
:1012E0000190F081E02DCE010995080F191F96019C
:1012F000A701B801CE010E941709DF91CF911F917C
:101300000F91FF90EF90DF90CF900895AF92BF9232
:10131000CF92DF92EF92FF920F931F93CF93DF93C1
:10132000EC015B016A0189010E94DC0CE12CF12CCB
:10133000EA81FB81D8016C91CE0109958F3FBFEF07
:101340009B0739F10F5F1F4F8E3F2FEF920781F3FD
:101350009C01A601B501CE010E9434099C01FE0149
:10136000EA5AFF4F9081913049F028F0923049F0CD
:10137000933051F00BC0A20EB31E08C0C20ED31E94
:1013800005C0A21AB30A02C0C21AD30AE20EF31EA3
:10139000CFCFC701DF91CF911F910F91FF90EF90B9
:1013A000DF90CF90BF90AF900895EFECFCE0DC01B0
:1013B0001396FC93EE9312970E9486090895FC0100
:1013C000EC5BFF4F20813181232BE1F1B09620812E
:1013D0003C9620833B9740813C96408332973081F6
:1013E000332381F1313079F439973081231714F4A4
:1013F0003A963083FC01E959FF4F2081241714F5F8
:101400003A9620830895022E000C330BFC01EF590D
:10141000FF4FE081DC01AD59BF4F5C91652F052E78
:10142000000C770B6E0F711DE7FD7A9526173707B5
:101430001CF41D96E50FEC93541724F4FC01EF58AF
:10144000FF4F50830895FC01E159FF4F10820E9425
:10145000DF0908958A5B9F4F2AE336E0FC01318360
:10146000208308958A5B9F4F2DE336E0FC01318392
:1014700020830895CF93DF93FC01EC5BFF4F208125
:1014800031812617370751F0EC0171836083895A47
:101490009F4F0E944606CE010E94DF09DF91CF9147
:1014A0000895CF93DF93EC01A881B981EB01E88126
:1014B000F981EA0FFB1FEA17FB0738F4A217B307FD
:1014C00018F4F901319701C0DA01A217B307A8F4A3
:1014D0004E175F07A0F4A417B50708F0AD012E174B
:1014E0003F0708F09F01FC0151834083241B350B0B
:1014F000EB013983288381E003C080E001C080E0F4
:10150000DF91CF9108950F93DC019A96ED91FC91B4
:101510009B974E1B5F0B5E96ED91FC915F97099533
:101520000F910895EF92FF920F931F93CF93DF9344
:1015300000D000D000D0CDB7DEB77A8369835C835A
:101540004B833E832D83FC01E259FF4F20812223F0
:1015500009F474C02D813E812115310509F46EC056
:1015600022303105B0F0023041F4621B730B9B0155
:101570002F5F3F4F3A8329830CC0033051F44B81D6
:101580005C81DA01A21BB30B9D012F5F3F4F3C83AF
:101590002B837C01102F117000FD1DC0FC0120ADBC
:1015A00031AD8B819C818217930708F447C022AD2F
:1015B00033AD8217930708F041C026A937A944A983
:1015C00055A9BE016B5F7F4FCE0101960E94510A63
:1015D000811123C033C0DC01D4962D913C91D59765
:1015E00089819A818217930748F1D6962D913C9173
:1015F000D7978217930710F5DA962D913C91DB97D8
:10160000D8964D915C91D997BE016B5F7F4FCE010B
:1016100003960E94510A882389F0D7019096ED9194
:10162000FC9191970480F581E02D2D813E814B81C5
:101630005C8169817A81012FC701099526960FB6D1
:10164000F894DEBF0FBECDBFDF91CF911F910F91F8
:10165000FF90EF9008954617570740F482179307BD
:1016600068F02417350760F481E008958217930726
:1016700048F42417350740F481E0089581E0089587
:1016800080E0089580E0089580E00895CF92DF9291
:10169000EF92FF920F931F93CF93DF93EC017B01A7
:1016A000690198016AAD7BAD88AD99AD0E942B0BA5
:1016B000882341F06EA97FA99601A7018CA99DA955
:1016C0000E942B0BDF91CF911F910F91FF90EF9014
:1016D000DF90CF9008950F931F93CF93DF93DC019A
:1016E000CA01542F5770C1E0D0E0052E02C0CC0FC4
:1016F000DD1F0A94E2F71C2FFD01EC58FF4FE0813B
:10170000E23010F040E001C04C2FE13009F410E06D
:10171000887FED91FC911197C089C89FF001C99F06
:10172000F00D112492968D919C9193976E0F7F1FCF
:10173000FC01E60FF71F011108C08081842B81276F
:10174000819321503109C9F721C09081942B9127B1
:1017500090835F5F577021503109511110C09696E8
:101760008D919C919797E80FF91FED01CC58DF4FB1
:101770008881823008F441E0813021F404C0440FB4
:10178000110F01C011E021153105F9F6DF91CF915C
:101790001F910F910895CF93DF93FC01A081B18138
:1017A00084A190E09C01220F331F220F331F220FD0
:1017B000331F31A720A750962C91509730E0220F6D
:1017C000331F220F331F220F331F37A326A375A108
:1017D000272F30E0A901440F551F440F551F440F18
:1017E000551F53A742A7280F391F51966C91519747
:1017F000C62FD0E0C217D30718F4CE01871B91097A
:10180000880F991F880F991F880F991F55A744A704
:10181000840F951F97A786A754968D919C915597F5
:1018200091AB80AB56968D919C91579793AB82ABC1
:10183000DF91CF9108950E94CB0B08950F931F93D2
:10184000CF93DF93EC01FC01EE5BFF4F0081118130
:101850002EAD3FAD3297408151816CAD7DAD0E9480
:10186000460B811104C0C259DF4F18822FC081E09E
:10187000FE01E259FF4F80832CA93DA98CAD9DAD9F
:101880002817390710F49DAB8CAB2EA93FA98EAD5C
:101890009FAD8217930710F49FAB8EAB28AD39AD87
:1018A000FE01E05CFF4F808191812817390710F419
:1018B00099AF88AF2AAD3BADFE01EE5BFF4F808153
:1018C00091818217930710F49BAF8AAFDF91CF917C
:1018D0001F910F910895FC0115AA14AA80A991A93E
:1018E00097AB86AB84A595A591AF80AF86A597A54C
:1018F00093AF82AFCF010E941E0C08950F930E94F8
:10190000830A0F910895DC01DD961C921E92DC97EC
:10191000FC01E05CFF4F118210822FEF3FEFFC01D2
:1019200037AF26AFEE5BFF4F318320839096ED916A
:10193000FC9191970280F381E02D099508950F9312
:101940001F93CF93DF93EC01FC01EC5BFF4F1182FF
:1019500010823F8F2E8F7BA36AA34CA31DA23F96BC
:101960001082B096108234971082359681E0808381
:101970003196808319A308A3D801ED91FC91CE0183
:101980000995CE010E94830CCE010E942A0ACA5AF0
:10199000DF4F1882DF91CF911F910F910895662339
:1019A00029F06A3031F0862F90E008958FEF9FEF95
:1019B00008958FEF9FEF0895FC01108E08959A010E
:1019C000DC011896ED91FC911997462F67E1099576
:1019D0000895CF93DF931F92CDB7DEB76983AE0131
:1019E0004F5F5F4F61E00E94DF0C0F90DF91CF915E
:1019F0000895DC011896ED91FC91199720E030E0F4
:101A000040E068E109950895DC011896ED91FC919C
:101A1000199720E030E040E069E109950895EF92E0
:101A2000FF921F93CF93DF93EC01162F7A010E9450
:101A3000F90C60E4CE010E94E90CE885F985970174
:101A4000412F67E1CE010995CE010E94040DDF917F
:101A5000CF911F91FF90EF900895462FDC011696CD
:101A6000ED91FC91179720E030E065E1099508952C
:101A7000462FDC011696ED91FC91179720E030E09F
:101A800066E1099508959A01DC011696ED91FC91A5
:101A90001797462F67E109950895DC011696ED9199
:101AA000FC91179720E030E040E068E10995089547
:101AB000DC011696ED91FC91179720E030E040E0B4
:101AC00069E109950895EF92FF920F931F93CF93C9
:101AD000DF931F92CDB7DEB77C018B01D8016D91EA
:101AE0008D016731B9F018F4653130F433C06A31D3
:101AF000E8F06E3F31F12EC0FD0141918F01498325
:101B0000D7011696ED91FC91179720E030E0C701C0
:101B10000995E4CFFD0181918F018983AE014F5F6B
:101B20005F4F61E0C7010E94430DD8CFD7011696E1
:101B3000ED91FC91179720E030E040E0C701099556
:101B4000CDCFFD0141918F01498369E2C7010E9418
:101B5000660FC4CF0F90DF91CF911F910F91FF902F
:101B6000EF900895EF92FF920F931F93CF937C0114
:101B7000C42F8901663129F130F4643109F441C080
:101B8000653149F060C0683109F44EC0F8F0693140
:101B900009F44EC058C080915206882319F0C7013D
:101BA0000E94040DC7010E94F90C60E0C7010E9469
:101BB000E90C6C2FC7010E94E90C81E0809352066A
:101BC00043C0642F0E94E90C81E03EC08091520620
:101BD000882361F0C7010E94040D08C0A80168E1D4
:101BE000C7010E940F0DC851085E1F4FC931B0F7E1
:101BF000A8016C2FC7010E940F0D1092520681E0C0
:101C000023C0DC0156968C9156978F3F19F488E7D4
:101C100056968C93D7011896ED91FC9119979801DF
:101C20004C2FC701099510C01092520681E00CC0DC
:101C300080915206882319F0C7010E94040D10926A
:101C4000520681E001C080E0CF911F910F91FF907B
:101C5000EF900895FC0171836083FB012289FC01F0
:101C6000248B0895CF93DF93EC01EA85FB8520E078
:101C700030E040E068E20995EE81FF8120E030E04D
:101C800040E064E1CE01099541E06BE4CE010E94A1
:101C9000660FE881F981448169E2CE010E94660FF6
:101CA00040E06BE4CE010E94660FE881F981448137
:101CB00069E2CE010E94660F41E06BE4CE010E9412
:101CC000660FE881F981458169E2CE010E94660FC5
:101CD000DF91CF9108950F931F93CF93DF9300D09F
:101CE00000D01F92CDB7DEB76C834D832B831A8350
:101CF0000983DC011496ED91FC9115979E012F5FED
:101D00003F4F41E06FE009950F900F900F900F90BB
:101D10000F90DF91CF911F910F910895DC011496E0
:101D2000ED91FC91159720E030E040E069E00995E5
:101D30000895DC011496ED91FC91159720E030E0B8
:101D400040E06AE009950895462FDC011496ED9174
:101D5000FC91159720E030E06BE009950895DC01D7
:101D60001496ED91FC91159720E030E040E060E1A1
:101D700009950895EF92FF920F931F93CF93DF93EE
:101D80008C01C42F79016D30B9F018F46B3031F04B
:101D900072C06E3069F16F30D1F16DC0411106C073
:101DA00063E371E00E94630D81E066C06EE271E062
:101DB0000E94630D81E060C041110DC067E271E0D7
:101DC0000E94630DD801ED91FC9111978289549680
:101DD0008C9381E051C060E271E00E94630DD801F4
:101DE000ED91FC911197838954968C9381E044C0C6
:101DF0000E944D0D61E8C8010E942D0D6C2FC80195
:101E00000E94380DC8010E94580D81E035C00E9423
:101E10004D0DF701D381DD0FDD0FDD0FD801549695
:101E20008C91D80F60E4C8010E942D0D6D2F629532
:101E30006F706061C8010E942D0D6D2F6F70C80119
:101E40000E94380DF7016481606BC8010E94380D53
:101E5000D70112966C9112974D915C91660F660FA7
:101E6000660FC8010E94430DC15091F7C8010E943E
:101E7000580D81E001C080E0DF91CF911F910F915B
:101E8000FF90EF9008950F931F93CF938C01C62F6F
:101E90000E94BA0E811115C0C93061F0CA3091F4A8
:101EA000C8010E94320E68E371E0C8010E94630D10
:101EB00081E008C068E071E0C8010E942A0E81E05C
:101EC00001C081E0CF911F910F910895DC011A9616
:101ED000ED91FC911B9720E030E00995089580E09A
:101EE0000895FC01118210828FE69FE09583848320
:101EF000978386839187808793878287158A108E40
:101F000014861586168617868FEF868B828F089526
:101F1000AF92BF92CF92DF92EF92FF920F931F93F7
:101F2000CF93DF93EC015B016A0179010E94710F8D
:101F3000BD82AC82DF82CE82F986E8861B870A8763
:101F4000CE010E948E0EDF91CF911F910F91FF90D5
:101F5000EF90DF90CF90BF90AF9008951092B900AE
:101F600088E48093B80008950F931F9394EA9093A8
:101F7000BC004FEF50E060E070E002C0B901A80182
:101F80009091BC00992354F08A019B0101501109E2
:101F900021093109452B462B472B81F79091B90038
:101FA000987F983011F0903109F78093BB0094E846
:101FB0009093BC004FEF50E060E070E002C0B901C8
:101FC000A8019091BC00992354F08A019B01015013
:101FD000110921093109452B462B472B81F7909197
:101FE000B900987F903211F09835C9F494E9909334
:101FF000BC004FEF50E060E070E002C0B901A80102
:102000009091BC0094FFB2CF8A019B01015011094D
:1020100021093109452B462B472B81F7A7CF1F916B
:102020000F91089584E98093BC008FEF90E0A0E0C9
:10203000B0E002C0DB01CA012091BC0024FF0AC04D
:10204000AC01BD014150510961097109892B8A2BED
:102050008B2B81F708958093BB0084E88093BC00AC
:102060008FEF90E0A0E0B0E002C0DB01CA01209158
:10207000BC00222364F0AC01BD014150510961094B
:102080007109892B8A2B8B2B81F7DB01CA01892BE4
:102090008A2B8B2B39F08091B900887F883221F010
:1020A00081E0089581E0089580E008950F931F93E3
:1020B000CF936831F9F028F46431C1F0673181F0D1
:1020C00004C06931E9F06032F9F080E01EC0890196
:1020D0000F5F1F4FF90180810E942B104C2F980138
:1020E000CFEFC40F4111F3CF81E00FC00E94AE0FBC
:1020F00081E00BC0FC0186890E94B40F81E005C01D
:102100000E94121081E001C081E0CF911F910F91D8
:1021100008956A3211F118F4693261F104C06B322A
:1021200021F06C3269F180E00895242F30E0A4E6BC
:10213000B0E00E94FF1328EF30E040E050E00E9442
:10214000DD132332F8F4822F0197F1F781E008952F
:1021500095E39A95F1F70000482F8FEF840F411116
:10216000F7CF81E00895EFE9FFE03197F1F700C084
:102170000000482F8FEF840F4111F5CF81E00895C3
:1021800081E0089581E008950F931F93CF93DF932B
:1021900000E010E0D1C04A991FC08BB1877F8BB996
:1021A0008BB18F7D8BB987EB96E00E94D70562E4F7
:1021B00075E087EB96E00E943A0A2DE631E04EE1A9
:1021C00050E06EE170E087EB96E00E94D50987EB66
:1021D00096E00E94ED0541C032992CC087EB96E055
:1021E0000E94D70562E475E087EB96E00E943A0A08
:1021F00028E731E044E150E068E270E087EB96E0E8
:102200000E94D5092FE731E043E250E06EE170E033
:1022100087EB96E00E94D50987EB96E00E94ED05DA
:102220002FEF81EE94E0215080409040E1F700C014
:102230000000C4C08BB188608BB98BB180628BB950
:102240002FEF81EE94E0215080409040E1F700C0F4
:102250000000219602C0C0E0D0E0CA30D1050CF4E5
:102260009ACF0F5F1F4F8091000190910101801B59
:10227000910B6CE370E00E94C91360932E0780936A
:102280002D078A30B8F41F928F931F926F9387E8BF
:1022900091E09F938F9383E596E09F938F930E94A5
:1022A00015148DB79EB708960FB6F8949EBF0FBE53
:1022B0008DBF16C01F928F931F926F9381E991E09B
:1022C0009F938F9383E596E09F938F930E941514BD
:1022D0008DB79EB708960FB6F8949EBF0FBE8DBF00
:1022E00087EB96E00E94D70568E670E087EB96E002
:1022F0000E943A0A2AE931E045E050E06EE170E0E0
:1023000087EB96E00E94D50925EA31E044E150E0F0
:102310006EE170E087EB96E00E94D50923E536E098
:1023200048E250E068E270E087EB96E00E94D50951
:1023300087EB96E00E94ED058091000190910101EC
:10234000801791070CF087CF8BB1877F8BB98BB14A
:102350008F7D8BB980910001909101010196081742
:10236000190761F587EB96E00E94D70568E670E0F3
:1023700087EB96E00E943A0A2FEA31E044E150E010
:1023800062E370E087EB96E00E94D50921EB31E033
:1023900043E250E068E270E087EB96E00E94D509E6
:1023A00027EB31E04DE250E069E270E087EB96E028
:1023B0000E94D50987EB96E00E94ED05DF91CF9151
:1023C0001F910F9108958091000190910101803E2D
:1023D00021E09207A9F1883522E0920709F45CC058
:1023E0008836914009F083C087EB96E00E94D705BC
:1023F00068E670E087EB96E00E943A0A26EC31E04E
:1024000044E150E06EE170E087EB96E00E94D50970
:1024100022ED31E048E250E06EE170E087EB96E0BB
:102420000E94D50987EB96E00E94ED058FEF93ECB3
:1024300029E0815090402040E1F700C0000008955D
:1024400087EB96E00E94D70568E670E087EB96E0A0
:102450000E943A0A2CED31E044E150E064E170E082
:1024600087EB96E00E94D50929EE31E048E250E082
:102470006EE170E087EB96E00E94D50987EB96E06D
:102480000E94ED058FEF93EC29E0815090402040B1
:10249000E1F700C00000089587EB96E00E94D705A1
:1024A00068E670E087EB96E00E943A0A23EF31E09D
:1024B00044E150E064E170E087EB96E00E94D509CA
:1024C0002FEF31E048E250E06EE170E087EB96E0FC
:1024D0000E94D50987EB96E00E94ED058FEF93EC03
:1024E00029E0815090402040E1F700C000000895AD
:1024F00017B88BEF8AB985E084B98FEF88B982E08D
:102500008BB929E830E146E550E162E071E087EB04
:1025100096E00E94FE0588E78093CD0687EB96E063
:102520000E94990E60E087EB96E00E94A40E87EB74
:1025300096E00E94D70562E475E087EB96E00E9482
:102540003A0A87EB96E00E94230A87EB96E00E9406
:10255000320A2AE032E044E150E068E270E087EBC2
:1025600096E00E94D50926E132E048E250E064E1BD
:1025700070E087EB96E00E94D50987EB96E00E9419
:10258000ED052FEF87EA91E6215080409040E1F77A
:1025900000C0000087EB96E00E94D70568E670E077
:1025A00087EB96E00E943A0A87EB96E00E94230AA6
:1025B00087EB96E00E94320A24E232E04FE050E0DE
:1025C0006AE070E087EB96E00E94D50920E332E0F4
:1025D00048E250E06AE070E087EB96E00E94D5099F
:1025E00087EB96E00E94ED052FEF87EA91E62150F8
:1025F00080409040E1F700C000004A9B34C087EB68
:1026000096E00E94D70568E670E087EB96E00E94AE
:102610003A0A87EB96E00E94230A87EB96E00E9435
:10262000320A29E332E040E050E060E070E087EBFE
:1026300096E00E94D5092AE032E04EE150E060E0E9
:1026400070E087EB96E00E94D50987EB96E00E9448
:10265000ED052FEF87EA91E6215080409040E1F7A9
:1026600000C0000029C087EB96E00E94D70568E60D
:1026700070E087EB96E00E943A0A87EB96E00E94B2
:10268000230A87EB96E00E94320A29E432E040E018
:1026900050E060E070E087EB96E00E94D50987EBA0
:1026A00096E00E94ED052FEF87EA91E621508040E9
:1026B0009040E1F700C000004A9B04C08BB18064E9
:1026C0008BB903C08BB18F7B8BB98BB1877F8BB9F3
:1026D0008BB18F7D8BB9309905C08BB18F7B8BB956
:1026E0000E94C41031991EC02FEF89E698E1215055
:1026F00080409040E1F700C000008091000190917F
:10270000010188589F4F9093010180930001893502
:10271000924034F088E592E09093010180930001AB
:102720000E94E31133991EC08FEF99E628E1815092
:1027300090402040E1F700C000008091000190919E
:102740000101885791099093010180930001883617
:10275000914034F488E691E0909301018093000168
:102760000E94E3110E94E31148CFAA1BBB1B51E159
:1027700007C0AA1FBB1FA617B70710F0A61BB70BF1
:10278000881F991F5A95A9F780959095BC01CD0196
:10279000089597FB072E16F4009407D077FD09D013
:1027A0000E94B51307FC05D03EF4909581959F4F8C
:1027B0000895709561957F4F0895A1E21A2EAA1B86
:1027C000BB1BFD010DC0AA1FBB1FEE1FFF1FA217E1
:1027D000B307E407F50720F0A21BB30BE40BF50BDE
:1027E000661F771F881F991F1A9469F76095709567
:1027F000809590959B01AC01BD01CF010895A29FEA
:10280000B001B39FC001A39F700D811D1124911DC4
:10281000B29F700D811D1124911D0895DC0101C02E
:102820006D9341505040E0F70895AEE0B0E0EBE129
:10283000F4E10C94D6160D891E8986E08C831A83E8
:1028400009838FEF9FE79E838D83AE01475E5F4FC5
:102850006F89788DCE0101960E943714EF81F8853B
:10286000E00FF11F10822E96E4E00C94F216ABE01C
:10287000B0E0EDE3F4E10C94C8166C017B018A0131
:10288000FC0117821682838181FFCCC1CE010196A3
:102890003C01F6019381F70193FD859193FF8191AE
:1028A0007F01882309F4BAC1853239F493FD8591FB
:1028B00093FF81917F01853229F4B60190E00E9457
:1028C0002E16E7CF912C212C312CFFE1F315D8F0F7
:1028D0008B3279F038F4803279F08332A1F4232DF1
:1028E00020611DC08D3261F0803369F4232D216099
:1028F00016C0832D8260382EE32DE4603E2E2AC060
:10290000F32DF8601DC037FC2DC020ED280F2A30B4
:1029100040F08E32B9F436FC81C1232D2064322E72
:1029200019C036FE06C08AE0989E200D1124922E12
:1029300011C0EAE02E9E200D1124222EF32DF0620C
:102940003F2E08C08C3621F4832D8068382E02C0BB
:10295000883641F4F70193FD859193FF81917F01C2
:102960008111B3CF982F9F7D9554933028F40C5F3D
:102970001F4F9FE399830DC0833631F0833771F089
:10298000833509F059C021C0F801808189830E5F29
:102990001F4F88248394912C530113C02801F2E027
:1029A0004F0E511CF801A080B18036FE03C0692D86
:1029B00070E002C06FEF7FEFC5010E9423164C014B
:1029C0008201F32DFF773F2E16C0280122E0420E30
:1029D000511CF801A080B18036FE03C0692D70E063
:1029E00002C06FEF7FEFC5010E9418164C01F32D56
:1029F000F0683F2E820133FC1BC0822D90E08816C8
:102A00009906B0F4B60180E290E00E942E162A9456
:102A1000F4CFF50137FC859137FE81915F01B60156
:102A200090E00E942E1621102A9421E0821A91082B
:102A30008114910471F7E8C0843611F0893641F5AC
:102A4000F80137FE07C060817181828193810C5F3C
:102A50001F4F08C060817181072E000C880B990BF5
:102A60000E5F1F4FF32DFF763F2E97FF09C0909505
:102A70008095709561957F4F8F4F9F4FF0683F2EE7
:102A80002AE030E0A3010E946A16882E861845C00D
:102A9000853731F4232D2F7EB22E2AE030E025C079
:102AA000932D997FB92E8F36C1F018F4883579F0BF
:102AB000B5C0803719F0883721F0B0C0E92FE06148
:102AC000BE2EB4FE0DC0FB2DF460BF2E09C034FE37
:102AD0000AC0292F2660B22E06C028E030E005C0CB
:102AE00020E130E002C020E132E0F801B7FE07C08B
:102AF00060817181828193810C5F1F4F06C060816C
:102B0000718180E090E00E5F1F4FA3010E946A1662
:102B1000882E8618FB2DFF773F2E36FE0DC0232D05
:102B20002E7FA22E891458F434FE0BC032FC09C04B
:102B3000832D8E7EA82E05C0B82CA32C03C0B82CE4
:102B400001C0B92CA4FE0FC0FE01E80DF11D80816B
:102B5000803321F49A2D997EA92E09C0A2FE06C0C9
:102B6000B394B39404C08A2D867809F0B394A3FC7F
:102B700011C0A0FE06C0B21488F4280C922C9B1839
:102B80000EC0B21460F4B60180E290E00E942E16EE
:102B9000B394F7CFB21418F42B1802C0982C212C40
:102BA000A4FE10C0B60180E390E00E942E16A2FEA3
:102BB00017C0A1FC03C088E790E002C088E590E060
:102BC000B6010CC08A2D867859F0A1FE02C08BE2B6
:102BD00001C080E2A7FC8DE2B60190E00E942E16B3
:102BE000891438F4B60180E390E00E942E169A947E
:102BF000F7CF8A94F301E80DF11D8081B60190E0D2
:102C00000E942E168110F5CF222009F442CEB60183
:102C100080E290E00E942E162A94F6CFF60186817B
:102C2000978102C08FEF9FEF2B96E2E10C94E416A0
:102C3000FC010590615070400110D8F78095909587
:102C40008E0F9F1F0895FC0161507040019001108C
:102C5000D8F7809590958E0F9F1F08950F931F931F
:102C6000CF93DF93FB01238121FD03C08FEF9FEF03
:102C70002CC022FF16C0468157812481358142171E
:102C8000530744F4A081B1819D012F5F3F4F3183F1
:102C900020838C93268137812F5F3F4F3783268394
:102CA00014C08B01EC01FB010084F185E02D099536
:102CB000892BE1F6D80116968D919C911797019674
:102CC00017969C938E931697CE01DF91CF911F910B
:102CD0000F910895FA01AA27283051F1203181F18E
:102CE000E8946F936E7F6E5F7F4F8F4F9F4FAF4F14
:102CF000B1E03ED0B4E03CD0670F781F891F9A1F27
:102D0000A11D680F791F8A1F911DA11D6A0F711DDA
:102D1000811D911DA11D20D009F468943F912AE0E6
:102D2000269F11243019305D3193DEF6CF010895CE
:102D3000462F4770405D4193B3E00FD0C9F7F6CFFF
:102D4000462F4F70405D4A3318F0495D31FD4052C7
:102D5000419302D0A9F7EACFB4E0A695979587955D
:102D600077956795BA95C9F700976105710508953C
:102D70009B01AC010A2E06945795479537952795E8
:102D8000BA95C9F7620F731F841F951FA01D089580
:102D90002F923F924F925F926F927F928F929F926B
:102DA000AF92BF92CF92DF92EF92FF920F931F9359
:102DB000CF93DF93CDB7DEB7CA1BDB0B0FB6F8940A
:102DC000DEBF0FBECDBF09942A88398848885F844A
:102DD0006E847D848C849B84AA84B984C884DF80BB
:102DE000EE80FD800C811B81AA81B981CE0FD11D9F
:102DF0000FB6F894DEBF0FBECDBFED010895F89475
:022E0000FFCF02
:102E0200E0011B0C6B0C7E0C0001140A646432326C
:102E120000127A000004289610080000800040008A
:102E22001815A015C019FF1815A115C819FF1815F6
:102E3200AE19FF1815AF19FF1815AE15D516801566
:102E4200A8163F15D316001540158D161415201619
:102E52000015A115C815DA1612158116CF15D91647
:102E6200F115DB1640152E15A415A619FF43617541
:102E720074696F6E2E2E2100466F726365200053B7
:102E8200746F7070656400302564203A20302564C8
:102E920000302564203A202564002A2A2A2A2A2A78
:102EA2002A2A2A2A0054696D65204C656674004FEF
:102EB200002F207C2029002F20207C2E2E2E2E2E2B
:102EC2002E2E2E2E2E00536D616C6C204974656D72
:102ED200730036204D696E75746573004D656469C3
:102EE200756D204974656D730038204D696E757477
:102EF2006573004C61726765204974656D730031BA
:102F020030204D696E757465730053656E73697414
:102F1200697A696E67005573696E6720555620524B
:102F22006179730044657369676E65642062790034
:102F320047726F757020313400507265737320537D
:102F4200656C65637420746F005072657373204FF3
:022F52006E000F
:00000001FF
